:020000040800F2
:1000000000280020591600082D1500083315000897
:10001000391500083F1500084515000800000000CC
:100020000000000000000000000000004B15000868
:100030005715000800000000631500086F15000840
:10004000A1160008A1160008A1160008A1160008B4
:10005000A1160008A1160008A1160008A1160008A4
:10006000A1160008A1160008A1160008A116000894
:10007000A1160008A1160008A1160008A116000884
:10008000A1160008A1160008A1160008A116000874
:10009000A1160008A1160008A1160008A116000864
:1000A000A1160008A1160008A1160008A116000854
:1000B0007D150008A116000800000000A116000828
:1000C000A11600080000000000000000A1160008B2
:1000D00000000000A1160008A116000800000000A2
:1000E000A1160008A1160008A116000800000000D3
:1000F0000000000000000000000000000000000000
:0C01000000000000000000005FF808F1A3
:10010C0010B5054C237833B9044B13B10448AFF345
:10011C0000800123237010BD24000020000000008B
:10012C00D02C000808B5034B1BB103490348AFF3AF
:10013C00008008BD0000000028000020D02C000822
:10014C0080B400AF0C4B1E221A600C4B05221A60B7
:10015C000B4B19221A60084B1B680A4A1360074B99
:10016C001B68094A1360064B1B68084A136000BFE2
:10017C00BD4680BC704700BFD4000020C4000020E6
:10018C00C8000020CC000020D0000020C0000020BF
:10019C0080B400AF1E4B1B68042B20D0042B2BDC2F
:1001AC00022B02D0032B0DD026E01A4B1B68013317
:1001BC00184A1360174B1B68632B1FDD154B01226C
:1001CC001A601BE0144B1B680133134A1360124B6B
:1001DC001B68632B14DD104B01221A6010E00F4BCF
:1001EC001B6801330D4A13600C4B1B68632B09DD34
:1001FC000A4B01221A6005E000BF04E000BF02E0D8
:10020C0000BF00E000BF00BFBD4680BC704700BF10
:10021C0000000020CC000020D0000020C0000020F6
:10022C0080B483B000AF00237B602B4B1B68042B86
:10023C0034D0042B49DC022B02D0032B17D044E022
:10024C00264B1A68264B1B68D31A7B60234B1B6802
:10025C00234A1360234B1A687B681344214A1360AA
:10026C00214B1A687B6813441F4A13602EE01F4B06
:10027C001A681F4B1B68D31A7B601C4B1B681C4AEB
:10028C001360174B1A687B681344154A1360134BA1
:10029C001A687B681344114A136017E0124B1A68F2
:1002AC00104B1B68D31A7B600F4B1B680D4A1360F5
:1002BC000B4B1A687B681344094A1360074B1A6886
:1002CC007B681344054A136000E000BF00BF0C3785
:1002DC00BD4680BC704700BF00000020CC00002051
:1002EC00D4000020C8000020C0000020D000002056
:1002FC00C400002080B500AF834B1B78022B61D06B
:10030C00022B00F39080002B02D0012B29D08AE025
:10031C00002000F001FA0346002B00F086807A4B97
:10032C0001221A70794B1B680133784A1360774BA2
:10033C001B68022B07D0754B1B68032B03D0734B28
:10034C001B68042B03D100F049FA00F0A7FA6F4B9D
:10035C001B68042B69DD6D4B01221A6000F028FD2F
:10036C0063E0002000F0D8F90346002B02D1664B65
:10037C0000221A70002000F0E9F90346002B56D039
:10038C00614B02221A70614B1B6801335F4A136088
:10039C005E4B1B68022B07D05C4B1B68032B03D0F6
:1003AC005A4B1B68042B03D100F018FA00F076FAB4
:1003BC00564B1B68042B3ADD544B01221A6000F09B
:1003CC00F7FC34E0002000F0A7F90346002B02D123
:1003DC004D4B00221A70002000F0D2F90346002B7E
:1003EC0027D04A4B1B680133484A1360474B1B68A4
:1003FC00022B07D0454B1B68032B03D0434B1B68C8
:10040C00042B03D100F0EAF900F048FA3F4B1B68CB
:10041C00042B04DD3D4B01221A6000F0C9FC0020C6
:10042C0000F0C8F905E000BF04E000BF02E000BF27
:10043C0000E000BF344B5B78022B27D0022B3ADC58
:10044C00002B02D0012B0CD035E0012000F064F918
:10045C000346002B31D02C4B01225A70FFF798FE2B
:10046C002BE0012000F058F90346002B02D1264B5B
:10047C0000225A70012000F069F90346002B1ED0AF
:10048C00214B02225A70FFF783FE18E0012000F086
:10049C0043F90346002B02D11B4B00225A7001205A
:1004AC0000F06EF90346002B0BD0FFF771FE012014
:1004BC0000F080F905E000BF04E000BF02E000BFDF
:1004CC0000E000BF104B9B78002B02D0012B0CD00E
:1004DC0018E0022000F020F90346002B0FD0FFF7A4
:1004EC009FFE094B01229A7009E0022000F014F9DA
:1004FC000346002B05D1044B00229A7001E000BF8B
:10050C0000E000BF00BF80BD4000002000000020C4
:10051C0080B500AF064B5B68012B05D100F0A6FD42
:10052C000A21012001F034F800F052FD00BF80BD1B
:10053C007000002080B483B000AF00237B6020E00B
:10054C00144A7B68134401221A70134A7B681344C3
:10055C0001221A70114A7B68134401221A70104A46
:10056C007B68134401221A700E4A7B6813440022E4
:10057C001A700D4A7B68002122F813107B68013336
:10058C007B607B68022BDBDD00BF00BF0C37BD46F8
:10059C0080BC7047480000204C0000205000002018
:1005AC0044000020540000205C00002080B582B084
:1005BC0000AF00237B6091E04D4A7B6813441978AF
:1005CC004C4A7B6813440A461A704B4A7B681344A6
:1005DC001978474A7B6813440A461A70474A7B6865
:1005EC0032F813301946464801F040FB03461946D1
:1005FC00414A7B6813440A461A703E4A7B6813448E
:10060C001A783B497B680B441B789A4212D1384AC2
:10061C007B6813441A7838497B680B441B789A42E0
:10062C0008D1354A7B6813441978364A7B681344E1
:10063C000A461A70334A7B6813441B78002B36D158
:10064C00314A7B6832F81330632B0AD82E4A7B6808
:10065C0032F81330013399B22B4A7B6822F813100D
:10066C0039E02A4A7B68134401221A70284A7B68B5
:10067C0032F81330312B2ED8254A7B6832F81330E0
:10068C00013399B2224A7B6822F81310204A7B6806
:10069C0032F81330312B1ED91E4A7B6813440122C9
:1006AC001A701B4A7B68002122F8131013E0164ABB
:1006BC007B68002122F81310154A7B68002122F870
:1006CC001310124A7B68134400221A70114A7B687B
:1006DC00134400221A707B6801337B607B68022B09
:1006EC007FF76AAF00BF00BF0837BD4680BD00BFB3
:1006FC004C00002048000020500000200400002086
:10070C00000C0140440000205C000020540000203C
:10071C00640000205800002080B483B000AF034672
:10072C00FB71FB79022B01D9002307E0FB79064A08
:10073C00D35C002B0CBF01230023DBB218460C3713
:10074C00BD4680BC704700BF4400002080B483B01D
:10075C0000AF0346FB71FB79022B01D9002307E0A4
:10076C00FB79064AD35C012B0CBF01230023DBB2BF
:10077C0018460C37BD4680BC704700BF54000020A3
:10078C0080B483B000AF0346FB71FB79022B01D917
:10079C00002307E0FB79064AD35C012B0CBF012335
:1007AC000023DBB218460C37BD4680BC704700BF37
:1007BC005800002080B483B000AF0346FB71FB7976
:1007CC00022B04D8FB79044A0021D15400E000BF6D
:1007DC000C37BD4680BC70475800002080B500AF78
:1007EC0001228021084801F058FA01224FF480714F
:1007FC00054801F052FA01224FF40071024801F051
:10080C004CFA00BF80BD00BF0008014080B500AFAE
:10081C0000228021084801F040FA01224FF4807137
:10082C00054801F03AFA01224FF40071024801F038
:10083C0034FA00BF80BD00BF0008014080B500AF96
:10084C0001228021084801F028FA00224FF480711F
:10085C00054801F022FA01224FF40071024801F020
:10086C001CFA00BF80BD00BF0008014080B500AF7E
:10087C0001228021084801F010FA01224FF4807106
:10088C00054801F00AFA00224FF40071024801F009
:10089C0004FA00BF80BD00BF0008014080B500AF66
:1008AC0001224FF48061084801F0F7F901224FF45E
:1008BC000061054801F0F1F901224FF48051024822
:1008CC0001F0EBF900BF80BD0008014080B500AF1E
:1008DC0000224FF48061084801F0DFF901224FF447
:1008EC000061054801F0D9F901224FF4805102480A
:1008FC0001F0D3F900BF80BD0008014080B500AF06
:10090C0001224FF48061084801F0C7F900224FF42E
:10091C000061054801F0C1F901224FF480510248F1
:10092C0001F0BBF900BF80BD0008014080B500AFED
:10093C0001224FF48061084801F0AFF901224FF415
:10094C000061054801F0A9F900224FF480510248DA
:10095C0001F0A3F900BF80BD0008014080B582B052
:10096C0000AF78607B68092B00F2808101A252F8FD
:10097C0023F000BFA9090008F1090008390A000892
:10098C00810A0008C90A0008110B0008590B00085D
:10099C00A10B0008E90B0008310C00080022012112
:1009AC00C64801F07AF900220221C44801F075F919
:1009BC0000220421C14801F070F900220821BF482F
:1009CC0001F06BF900221021BC4801F066F90022FD
:1009DC002021BA4801F061F901224021B74801F009
:1009EC005CF967E101220121B44801F056F90022BB
:1009FC000221B24801F051F900220421AF4801F064
:100A0C004CF901220821AD4801F047F901221021CF
:100A1C00AA4801F042F901222021A84801F03DF931
:100A2C0001224021A54801F038F943E100220121BF
:100A3C00A24801F032F900220221A04801F02DF960
:100A4C00012204219D4801F028F9002208219B482D
:100A5C0001F023F900221021984801F01EF901221F
:100A6C002021964801F019F900224021934801F009
:100A7C0014F91FE100220121904801F00EF9002227
:100A8C0002218E4801F009F9002204218B4801F063
:100A9C0004F900220821894801F0FFF801221021F5
:100AAC00864801F0FAF801222021844801F0F5F87B
:100ABC0000224021814801F0F0F8FBE001220121E5
:100ACC007E4801F0EAF8002202217C4801F0E5F8AA
:100ADC0000220421794801F0E0F80122082177482E
:100AEC0001F0DBF801221021744801F0D6F8002245
:100AFC002021724801F0D1F8002240216F4801F00A
:100B0C00CCF8D7E0002201216C4801F0C6F8012294
:100B1C0002216A4801F0C1F800220421674801F063
:100B2C00BCF800220821654801F0B7F80122102119
:100B3C00624801F0B2F800222021604801F0ADF8C3
:100B4C00002240215D4801F0A8F8B3E00022012109
:100B5C005A4801F0A2F801220221584801F09DF8F0
:100B6C0000220421554801F098F80022082153482E
:100B7C0001F093F800221021504801F08EF8002269
:100B8C0020214E4801F089F8002240214B4801F009
:100B9C0084F88FE000220121484801F07EF8002201
:100BAC000221464801F079F800220421434801F063
:100BBC0074F801220821414801F06FF8012210213C
:100BCC003E4801F06AF8012220213C4801F065F80A
:100BDC0001224021394801F060F86BE0002201212C
:100BEC00364801F05AF800220221344801F055F839
:100BFC0000220421314801F050F8002208212F482E
:100C0C0001F04BF8002210212C4801F046F800228C
:100C1C0020212A4801F041F800224021274801F008
:100C2C003CF847E000220121244801F036F800226C
:100C3C000221224801F031F8002204211F4801F062
:100C4C002CF8002208211D4801F027F80122102160
:100C5C001A4801F022F800222021184801F01DF852
:100C6C0000224021154801F018F823E00022012150
:100C7C00124801F012F800220221104801F00DF880
:100C8C00002204210D4801F008F8002208210B482D
:100C9C0001F003F801221021084800F0FEFF0022A9
:100CAC002021064800F0F9FF00224021034800F003
:100CBC00F4FF00BF00BF0837BD4680BD00080140EF
:100CCC0080B500AF8021114800F0FFFF4FF4806128
:100CDC000E4800F0FAFF01224FF480710B4800F02F
:100CEC00DCFF01224FF40061084800F0D6FF01221E
:100CFC004FF40071054800F0D0FF01224FF48051F1
:100D0C00024800F0CAFF00BF80BD00BF00080140D0
:100D1C0080B500AF4FF48071104800F0D6FF4FF44F
:100D2C0000610E4800F0D1FF012280210B4800F039
:100D3C00B4FF01224FF48061084800F0AEFF01229D
:100D4C004FF40071054800F0A8FF01224FF48051C8
:100D5C00024800F0A2FF00BF80BD00BF00080140A8
:100D6C0080B500AF4FF40071104800F0AEFF4FF4A7
:100D7C0080510E4800F0A9FF012280210B4800F0A1
:100D8C008CFF01224FF48061084800F086FF01229D
:100D9C004FF48071054800F080FF01224FF4006190
:100DAC00024800F07AFF00BF80BD00BF0008014080
:100DBC0080B400AF084B1B68084A1360084B1B68D3
:100DCC00084A1360084B00221A70084B02221A7052
:100DDC0000BFBD4680BC7047D40000200C00002032
:100DEC00C8000020100000206A0000201400002021
:100DFC0080B500AF414B1B68013B404A1360404B30
:100E0C001B68013B3E4A13603E4B1B78022B22D0E1
:100E1C00022B2EDC002B02D0012B0ED029E0FFF789
:100E2C00F5FC364B1B68002B25DC374B1B68334A13
:100E3C001360344B02221A701DE0FFF7FFFC2F4B9E
:100E4C001B68002B19DC314B1B682C4A13602D4B93
:100E5C0000221A7011E0FFF709FD284B1B68002BCC
:100E6C000DDC2B4B1B68254A1360264B01221A7094
:100E7C0005E000BF04E000BF02E000BF00E000BFDF
:100E8C00244B1B78022B22D0022B2EDC002B02D001
:100E9C00012B0ED029E0FFF719FD194B1B68002B15
:100EAC0025DC194B1B68164A13601A4B02221A7068
:100EBC001DE0FFF723FD124B1B68002B19DC134BB5
:100ECC001B680F4A1360134B00221A7011E0FFF7D6
:100EDC002DFD0B4B1B68002B0DDC0D4B1B68084AC2
:100EEC0013600C4B01221A7005E000BF04E000BF38
:100EFC0002E000BF00E000BF00BF80BD0C0000207E
:100F0C00100000206A000020C8000020D40000203F
:100F1C00C40000201400002080B400AF104B1B68EC
:100F2C00013B032B16D801A252F823F0490F0008FD
:100F3C004F0F0008550F00085B0F0008094B1B688A
:100F4C000AE0094B1B6807E0084B1B6804E0084BE0
:100F5C001B6801E000BF00231846BD4680BC7047EB
:100F6C00000000200C000020CC000020D00000204D
:100F7C00C000002080B400AF104B1B68013B032B5A
:100F8C0016D801A252F823F0A50F0008AB0F0008E9
:100F9C00B10F0008B70F0008094B1B680AE0094B9A
:100FAC001B6807E0084B1B6804E0084B1B6801E05A
:100FBC0000BF00231846BD4680BC704700000020CF
:100FCC0010000020CC000020D0000020C000002029
:100FDC0080B500AF234B1B68013B032B37D801A214
:100FEC0052F823F001100008191000082F10000807
:100FFC00451000081C4B1B68012B2AD14FF47A7149
:10100C00002000F0C5FAFFF7F3FE22E0164B1B6838
:10101C00012B20D1FA21002000F0BAFAFFF750FE84
:10102C0019E0114B1B68012B17D1FA21002000F09D
:10103C00AFFAFFF76DFE10E00B4B1B68012B0ED1C6
:10104C00FA21002000F0A4FAFFF78AFE07E000BFA7
:10105C0006E000BF04E000BF02E000BF00E000BFFC
:10106C0000BF80BD000000207000002080B500AFE4
:10107C00744B1B68042B00F2E28001A252F823F09F
:10108C00A1100008F510000853110008A711000862
:10109C0005120008012210216B4800F0FEFD002211
:1010AC002021694800F0F9FD00224021664800F03B
:1010BC00F4FD00228021644800F0EFFD00224FF483
:1010CC008071614800F0E9FDFFF726FF03465F4A97
:1010DC0082FB03129210DB17D31A1846FFF73EFC63
:1010EC00584B01221A60ABE000221021564800F048
:1010FC00D4FD01222021544800F0CFFD00224021D4
:10110C00514800F0CAFD002280214F4800F0C5FD77
:10111C0000224FF480714C4800F0BFFDFFF7FCFE3D
:10112C0001464A4B83FB01239A10CB17D21A134664
:10113C009B0013445B00CA1A1046FFF70FFC414B8F
:10114C0002221A607CE0002210213F4800F0A5FD2D
:10115C00002220213C4800F0A0FD012240213A4809
:10116C0000F09BFD00228021374800F096FD002204
:10117C004FF48071344800F090FDFFF7FBFE0346FE
:10118C00324A82FB03129210DB17D31A1846FFF770
:10119C00E5FB2C4B03221A6052E0002210212A4856
:1011AC0000F07BFD00222021274800F076FD002274
:1011BC004021254800F071FD01228021224800F0D9
:1011CC006CFD00224FF480711F4800F066FDFFF7A4
:1011DC00D1FE01461D4B83FB01239A10CB17D21A6B
:1011EC0013469B0013445B00CA1A1046FFF7B6FB6C
:1011FC00144B04221A6023E000221021124800F044
:10120C004CFD00222021104800F047FD0022402117
:10121C000D4800F042FD002280210B4800F03DFDFE
:10122C0001224FF48071084800F037FD084B1B6811
:10123C001846FFF793FB034B00221A6000E000BF37
:10124C0000BF80BD6C000020000C01406766666624
:10125C000000002080B500AF00F01EFA00F01AF874
:10126C0000F0A0F800F052F8094801F073F9FFF70C
:10127C0061F9FEF765FF0A21002000F089F91421BD
:10128C00012000F085F9FFF735F8FFF741F9FAE78F
:10129C00D800002080B590B000AF07F118032822C9
:1012AC000021184601F006FD3B1D00221A605A6011
:1012BC009A60DA601A610223BB610123BB621023BE
:1012CC00FB6200237B6307F11803184600F016FD40
:1012DC000346002B01D000F0C7F80F237B600023DE
:1012EC00BB600023FB6000233B6100237B613B1D43
:1012FC000021184600F082FF0346002B01D000F0BD
:10130C00B3F800BF4037BD4680BD000080B586B045
:10131C0000AF07F1080300221A605A609A60DA6085
:10132C003B4600221A605A601D4B4FF080421A60F7
:10133C001B4B41F63F725A60194B00229A60184BB6
:10134C000922DA60164B00221A61154B00229A61B1
:10135C00134801F0AFF80346002B01D000F084F8DD
:10136C004FF48053BB6007F1080319460C4801F099
:10137C002DFA0346002B01D000F076F800233B60D9
:10138C0000237B603B461946054801F005FC0346EB
:10139C00002B01D000F068F800BF1837BD4680BDA7
:1013AC00D800002080B586B000AF07F108030022FA
:1013BC001A605A609A60DA60284B9B69274A43F09E
:1013CC0004039361254B9B6903F004037B607B68EA
:1013DC00224B9B69214A43F0080393611F4B9B6985
:1013EC0003F008033B603B68002241F6FF711C4888
:1013FC0000F053FC00224FF4F8711A4800F04DFC39
:10140C0041F6FF73BB600123FB6000233B610223A9
:10141C007B6107F108031946114800F0ADFA072368
:10142C00BB600023FB6000233B6107F108031946F6
:10143C000C4800F0A1FA4FF4F873BB600123FB6079
:10144C0000233B6102237B6107F108031946054821
:10145C0000F092FA00BF1837BD4680BD0010024064
:10146C0000080140000C014080B400AF72B600BF10
:10147C00FEE7000080B485B000AF154B9B69144AA1
:10148C0043F001039361124B9B6903F00103BB60B2
:10149C00BB680F4BDB690E4A43F08053D3610C4B96
:1014AC00DB6903F080537B607B680A4B5B68FB60F5
:1014BC00FB6823F0E063FB60FB6843F08063FB6038
:1014CC00044AFB68536000BF1437BD4680BC7047AC
:1014DC00001002400000014080B584B000AF78607D
:1014EC007B681B68B3F1804F13D10C4BDB690B4A43
:1014FC0043F00103D361094BDB6903F00103FB608B
:10150C00FB68002200211C2000F0FFF91C2000F0D9
:10151C0018FA00BF1037BD4680BD00BF0010024056
:10152C0080B400AFFEE780B400AFFEE780B400AF3C
:10153C00FEE780B400AFFEE780B400AFFEE780B4F6
:10154C0000AF00BFBD4680BC704780B400AF00BF89
:10155C00BD4680BC704780B400AF00BFBD4680BCA8
:10156C00704780B500AF00F0DDF800BF80BD000013
:10157C0080B500AF024801F039F800BF80BD00BF54
:10158C00D800002080B400AF00BFBD4680BC7047BF
:10159C0080B483B000AF78603960094A7B68002161
:1015AC0042F823100A223B6893FBF2F205497B6850
:1015BC0041F8232000BF0C37BD4680BC704700BFEC
:1015CC00700000209800002080B483B000AF00238E
:1015DC007B601CE0124A7B6852F82330002B13DD31
:1015EC000F4A7B6852F823305A1E0D497B6841F82C
:1015FC0023200B4A7B6852F82330002B04DC094A69
:10160C007B68012142F823107B6801337B607B6887
:10161C00092BDFDD00BF00BF0C37BD4680BC704717
:10162C00980000207000002080B582B000AF786078
:10163C007B681B68B3F1804F01D1FEF7B7FFFFF752
:10164C00C3FF00BF0837BD4680BD0000FFF79AFFFF
:10165C000B480C490C4A002302E0D458C450043304
:10166C00C4188C42F9D3094A094C002301E01360D9
:10167C000432A242FBD301F0F9FAFFF7EBFD7047FD
:10168C000000002024000020142D0008240000205D
:10169C0024010020FEE7000080B500AF084B1B685A
:1016AC00074A43F010031360032000F023F90F20C6
:1016BC0000F008F8FFF7DEFE0023184680BD00BFDF
:1016CC000020024080B582B000AF7860124B1A68DF
:1016DC00124B1B7819464FF47A73B3FBF1F3B2FB40
:1016EC00F3F3184600F03BF90346002B01D001231D
:1016FC000EE07B680F2B0AD8002279684FF0FF3080
:10170C0000F003F9064A7B681360002300E0012314
:10171C0018460837BD4680BD180000202000002068
:10172C001C00002080B400AF054B1B781A46054BFB
:10173C001B681344034A136000BFBD4680BC70474E
:10174C00200000202001002080B400AF024B1B6859
:10175C001846BD4680BC70472001002080B485B07F
:10176C0000AF78607B6803F00703FB600C4BDB6811
:10177C00BB60BA684FF6FF031340BB60FB681A02EC
:10178C00BB68134343F0BF6343F40033BB60044AAC
:10179C00BB68D36000BF1437BD4680BC704700BF28
:1017AC0000ED00E080B400AF044BDB681B0A03F0D3
:1017BC0007031846BD4680BC704700BF00ED00E033
:1017CC0080B483B000AF0346FB7197F90730002B50
:1017DC000BDBFB7903F01F02064997F907305B0915
:1017EC00012000FA02F241F8232000BF0C37BD465D
:1017FC0080BC704700E100E080B483B000AF0346CA
:10180C003960FB7197F90730002B0ADB3B68DAB2C1
:10181C000C4997F907301201D2B20B4483F800231C
:10182C000AE03B68DAB20849FB7903F00F03043B8A
:10183C001201D2B20B441A7600BF0C37BD4680BCE5
:10184C00704700BF00E100E000ED00E080B489B01B
:10185C0000AFF860B9607A60FB6803F00703FB61C6
:10186C00FB69C3F10703042B28BF0423BB61FB698D
:10187C000433062B02D9FB69033B00E000237B6198
:10188C004FF0FF32BB6902FA03F3DA43BB681A402C
:10189C007B699A404FF0FF317B6901FA03F3D9431E
:1018AC007B680B40134318462437BD4680BC7047F9
:1018BC0080B582B000AF78607B68013BB3F1807F6C
:1018CC0001D301230FE00A4A7B68013B53600F21CF
:1018DC004FF0FF30FFF790FF054B00229A60044B4E
:1018EC0007221A60002318460837BD4680BD00BF8A
:1018FC0010E000E080B582B000AF78607868FFF748
:10190C002DFF00BF0837BD4680BD80B586B000AF47
:10191C000346B9607A60FB7300237B61FFF742FFDB
:10192C0078617A68B9687869FFF790FF024697F991
:10193C000F3011461846FFF75FFF00BF1837BD4642
:10194C0080BD80B582B000AF0346FB7197F90730BC
:10195C001846FFF735FF00BF0837BD4680BD80B580
:10196C0082B000AF78607868FFF7A2FF0346184694
:10197C000837BD4680BD000080B48BB000AF7860E6
:10198C00396000237B6200233B6248E101227B6AC1
:10199C0002FA03F3FB613B681B68FA691340BB61F5
:1019AC00BA69FB699A4240F037813B685B68A34A8D
:1019BC0093425ED0A14A934275D8A14A934258D023
:1019CC009F4A93426FD89F4A934252D09D4A93426A
:1019DC0069D89D4A93424CD09B4A934263D89B4A08
:1019EC00934246D0994A93425DD8122B2AD8122B97
:1019FC0059D801A252F823F07F1A0008591A00088E
:101A0C006B1A0008AD1A0008B31A0008B31A0008C4
:101A1C00B31A0008B31A0008B31A0008B31A000866
:101A2C00B31A0008B31A0008B31A0008B31A000856
:101A3C00B31A0008B31A0008B31A0008611A000898
:101A4C00751A0008824A934213D02CE03B68DB687D
:101A5C003B6229E03B68DB6804333B6224E03B6873
:101A6C00DB6808333B621FE03B68DB680C333B628E
:101A7C001AE03B689B68002B02D104233B6213E005
:101A8C003B689B68012B05D108233B627B68FA6994
:101A9C001A6109E008233B627B68FA695A6103E02A
:101AAC0000233B6200E000BFBB69FF2B01D87B68C1
:101ABC0001E07B6804337B61BB69FF2B02D87B6A36
:101ACC009B0002E07B6A083B9B003B617B691A68C8
:101ADC000F213B6901FA03F3DB431A40396A3B6976
:101AEC0001FA03F31A437B691A603B685B6803F0E5
:101AFC008053002B00F09080564B9B69554A43F065
:101B0C0001039361534B9B6903F00103BB60BB68FA
:101B1C00514A7B6A9B08023352F82330FB607B6A84
:101B2C0003F003039B000F2202FA03F3DB43FA6872
:101B3C001340FB607B68494A93420DD07B68484A4E
:101B4C00934207D07B68474A934201D1022304E0B9
:101B5C00032302E0012300E000237A6A02F003026F
:101B6C0092009340FA681343FB603B497B6A9B08E5
:101B7C000233FA6841F823203B685B6803F4801356
:101B8C00002B06D0384B9A683749BB6913438B60DE
:101B9C0006E0354B9A68BB69DB43334913408B60D5
:101BAC003B685B6803F40013002B06D02E4BDA68FD
:101BBC002D49BB691343CB6006E02B4BDA68BB693C
:101BCC00DB4329491340CB603B685B6803F400336B
:101BDC00002B06D0244B5A682349BB6913434B6036
:101BEC0006E0214B5A68BB69DB431F4913404B602D
:101BFC003B685B6803F48033002B06D01A4B1A68E1
:101C0C001949BB6913430B6006E0174B1A68BB6993
:101C1C00DB43154913400B607B6A01337B623B68E5
:101C2C001A687B6A22FA03F3002B7FF4AFAE00BF75
:101C3C0000BF2C37BD4680BC704700BF000032107F
:101C4C0000003110000022100000211000001210C2
:101C5C00000011100010024000000140000801407B
:101C6C00000C0140001001400004014080B485B01C
:101C7C0000AF78600B467B807B689A687B8813404A
:101C8C00002B02D00123FB7301E00023FB73FB7BD1
:101C9C0018461437BD4680BC704780B483B000AF83
:101CAC0078600B467B8013467B707B78002B03D0CF
:101CBC007A887B681A6103E07B881A047B681A6156
:101CCC0000BF0C37BD4680BC704780B485B000AFF8
:101CDC0078600B467B807B68DB68FB607A88FB68EE
:101CEC0013401A04FB68D9437B880B401A437B686A
:101CFC001A6100BF1437BD4680BC704780B586B0F2
:101D0C0000AF78607B68002B01D101236CE27B680B
:101D1C001B6803F00103002B00F08780924B5B687B
:101D2C0003F00C03042B0CD08F4B5B6803F00C03FB
:101D3C00082B12D18C4B5B6803F48033B3F5803FD6
:101D4C000BD1894B1B6803F40033002B6CD07B68E0
:101D5C005B68002B68D1012346E27B685B68B3F5B6
:101D6C00803F06D1804B1B687F4A43F4803313605D
:101D7C002EE07B685B68002B0CD17B4B1B687A4A8E
:101D8C0023F480331360784B1B68774A23F4802349
:101D9C0013601DE07B685B68B3F5A02F0CD1724B10
:101DAC001B68714A43F4802313606F4B1B686E4AA7
:101DBC0043F4803313600BE06B4B1B686A4A23F4CB
:101DCC0080331360684B1B68674A23F480231360CD
:101DDC007B685B68002B13D0FFF7B6FC386108E01A
:101DEC00FFF7B2FC02463B69D31A642B01D90323DB
:101DFC00FAE15D4B1B6803F40033002BF0D014E0C8
:101E0C00FFF7A2FC386108E0FFF79EFC02463B6935
:101E1C00D31A642B01D90323E6E1534B1B6803F45B
:101E2C000033002BF0D100E000BF7B681B6803F08F
:101E3C000203002B63D04C4B5B6803F00C03002BAC
:101E4C000BD0494B5B6803F00C03082B1CD1464BA1
:101E5C005B6803F48033002B16D1434B1B6803F0F3
:101E6C000203002B05D07B681B69012B01D00123D9
:101E7C00BAE13D4B1B6823F0F8027B685B69DB0021
:101E8C00394913430B603AE07B681B69002B20D067
:101E9C00364B01221A60FFF757FC386108E0FFF758
:101EAC0053FC02463B69D31A022B01D903239BE155
:101EBC002D4B1B6803F00203002BF0D02A4B1B6840
:101ECC0023F0F8027B685B69DB00274913430B6046
:101EDC0015E0264B00221A60FFF736FC386108E04B
:101EEC00FFF732FC02463B69D31A022B01D90323BC
:101EFC007AE11D4B1B6803F00203002BF0D17B68C9
:101F0C001B6803F00803002B3AD07B689B69002BFD
:101F1C0019D0174B01221A60FFF716FC386108E044
:101F2C00FFF712FC02463B69D31A022B01D903239B
:101F3C005AE10D4B5B6A03F00203002BF0D0012039
:101F4C0000F09AFA1CE00A4B00221A60FFF7FCFB27
:101F5C0038610FE0FFF7F8FB02463B69D31A022BFE
:101F6C0008D9032340E100BF0010024000004242A8
:101F7C00800442429E4B5B6A03F00203002BE9D1C2
:101F8C007B681B6803F00403002B00F0A680002381
:101F9C00FB75974BDB6903F08053002B0DD1944BF1
:101FAC00DB69934A43F08053D361914BDB6903F0B7
:101FBC008053BB60BB680123FB758E4B1B6803F41D
:101FCC008073002B18D18B4B1B688A4A43F48073A7
:101FDC001360FFF7B9FB386108E0FFF7B5FB024669
:101FEC003B69D31A642B01D90323FDE0814B1B6899
:101FFC0003F48073002BF0D07B68DB68012B06D1D7
:10200C007B4B1B6A7A4A43F0010313622DE07B6819
:10201C00DB68002B0CD1764B1B6A754A23F001034D
:10202C001362734B1B6A724A23F0040313621CE0A5
:10203C007B68DB68052B0CD16D4B1B6A6C4A43F03B
:10204C00040313626A4B1B6A694A43F0010313626F
:10205C000BE0674B1B6A664A23F001031362644B67
:10206C001B6A634A23F0040313627B68DB68002B52
:10207C0015D0FFF769FB38610AE0FFF765FB0246F4
:10208C003B69D31A41F28832934201D90323ABE066
:10209C00574B1B6A03F00203002BEED014E0FFF742
:1020AC0053FB38610AE0FFF74FFB02463B69D31A3A
:1020BC0041F28832934201D9032395E04C4B1B6AC1
:1020CC0003F00203002BEED1FB7D012B05D1484B15
:1020DC00DB69474A23F08053D3617B68DB69002BB3
:1020EC0000F08180424B5B6803F00C03082B61D03D
:1020FC007B68DB69022B46D13F4B00221A60FFF74D
:10210C0023FB386108E0FFF71FFB02463B69D31A3B
:10211C00022B01D9032367E0354B1B6803F00073D6
:10212C00002BF0D17B681B6AB3F5803F08D1304B94
:10213C005B6823F400327B689B682D4913434B602A
:10214C002B4B5B6823F474127B68196A7B685B6A9F
:10215C000B43274913434B60274B01221A60FFF7AF
:10216C00F3FA386108E0FFF7EFFA02463B69D31A3D
:10217C00022B01D9032337E01D4B1B6803F00073BE
:10218C00002BF0D02FE01C4B00221A60FFF7DCFA7A
:10219C00386108E0FFF7D8FA02463B69D31A022BE4
:1021AC0001D9032320E0124B1B6803F00073002BB2
:1021BC00F0D118E07B68DB69012B01D1012313E01E
:1021CC000B4B5B68FB60FB6803F480327B681B6A1B
:1021DC009A4206D1FB6803F470127B685B6A9A42E0
:1021EC0001D0012300E0002318461837BD4680BDFE
:1021FC0000100240007000406000424280B584B084
:10220C0000AF786039607B68002B01D10123D0E0EE
:10221C006A4B1B6803F007033A689A4210D9674B64
:10222C001B6823F0070265493B6813430B60634B43
:10223C001B6803F007033A689A4201D00123B8E007
:10224C007B681B6803F00203002B20D07B681B68A3
:10225C0003F00403002B05D0594B5B68584A43F438
:10226C00E06353607B681B6803F00803002B05D008
:10227C00534B5B68524A43F460535360504B5B685A
:10228C0023F0F0027B689B684D4913434B607B68DD
:10229C001B6803F00103002B40D07B685B68012BAB
:1022AC0007D1474B1B6803F40033002B15D10123D6
:1022BC007FE07B685B68022B07D1414B1B6803F006
:1022CC000073002B09D1012373E03D4B1B6803F015
:1022DC000203002B01D101236BE0394B5B6823F027
:1022EC0003027B685B68364913434B60FFF72CFA9B
:1022FC00F8600AE0FFF728FA0246FB68D31A41F2AD
:10230C008832934201D9032353E02D4B5B6803F0D1
:10231C000C027B685B689B009A42EBD1274B1B68D5
:10232C0003F007033A689A4210D2244B1B6823F03F
:10233C00070222493B6813430B60204B1B6803F0D8
:10234C0007033A689A4201D0012332E07B681B688C
:10235C0003F00403002B08D0194B5B6823F4E062F4
:10236C007B68DB68164913434B607B681B6803F082
:10237C000803002B09D0124B5B6823F460527B6876
:10238C001B69DB000E4913434B6000F021F8024639
:10239C000B4B5B681B0903F00F030A49CB5C22FA59
:1023AC0003F3094A1360094B1B681846FFF78AF9B7
:1023BC00002318461037BD4680BD00BF00200240E8
:1023CC0000100240E82C0008180000201C0000201F
:1023DC0080B487B000AF0023FB600023BB600023F8
:1023EC007B6100237B6000233B611E4B5B68FB60C1
:1023FC00FB6803F00C03042B02D0082B03D027E05E
:10240C00194B3B6127E0FB689B0C03F00F03174A49
:10241C00D35C7B60FB6803F48033002B10D0114B32
:10242C005B685B0C03F00103114AD35CBB607B68F7
:10243C000D4A02FB03F2BB68B2FBF3F37B6104E0D1
:10244C007B680C4A02FB03F37B617B693B6102E016
:10245C00054B3B6100BF3B6918461C37BD4680BC31
:10246C00704700BF0010024000127A00F82C0008E0
:10247C00082D000800093D0080B485B000AF7860DD
:10248C000A4B1B680A4AA2FB03235B0A7A6802FB0D
:10249C0003F3FB6000BFFB685A1EFA60002BF9D1F6
:1024AC0000BF00BF1437BD4680BC70471800002029
:1024BC00D34D621080B582B000AF78607B68002B82
:1024CC0001D1012341E07B6893F83D30DBB2002B56
:1024DC0006D17B68002283F83C207868FEF7FCFF6D
:1024EC007B68022283F83D207B681A687B68043382
:1024FC001946104600F056FA7B68012283F84620F4
:10250C007B68012283F83E207B68012283F83F2000
:10251C007B68012283F840207B68012283F84120EC
:10252C007B68012283F842207B68012283F84320D8
:10253C007B68012283F844207B68012283F84520C4
:10254C007B68012283F83D20002318460837BD46DE
:10255C0080BD000080B485B000AF78607B6893F8D4
:10256C003D30DBB2012B01D0012335E07B68022228
:10257C0083F83D207B681B68DA687B681B6842F037
:10258C000102DA607B681B68164A934209D07B68AB
:10259C001B68B3F1804F04D07B681B68124A9342CE
:1025AC0011D17B681B689B6803F00703FB60FB6819
:1025BC00062B10D07B681B681A687B681B6842F07E
:1025CC0001021A6007E07B681B681A687B681B684D
:1025DC0042F001021A60002318461437BD4680BC35
:1025EC00704700BF002C01400004004080B584B04F
:1025FC0000AF78607B681B68DB68FB607B681B68DE
:10260C001B69BB60BB6803F00203002B20D0FB6886
:10261C0003F00203002B1BD07B681B686FF00202D7
:10262C001A617B6801221A777B681B689B6903F02F
:10263C000303002B03D0786800F098F905E0786864
:10264C0000F08BF9786800F09AF97B6800221A7711
:10265C00BB6803F00403002B20D0FB6803F00403D9
:10266C00002B1BD07B681B686FF004021A617B681F
:10267C0002221A777B681B689B6903F44073002B5A
:10268C0003D0786800F072F905E0786800F065F91D
:10269C00786800F074F97B6800221A77BB6803F045
:1026AC000803002B20D0FB6803F00803002B1BD081
:1026BC007B681B686FF008021A617B6804221A772A
:1026CC007B681B68DB6903F00303002B03D078687D
:1026DC0000F04CF905E0786800F03FF9786800F0FC
:1026EC004EF97B6800221A77BB6803F01003002BAD
:1026FC0020D0FB6803F01003002B1BD07B681B68F9
:10270C006FF010021A617B6808221A777B681B68CD
:10271C00DB6903F44073002B03D0786800F026F9D2
:10272C0005E0786800F019F9786800F028F97B6802
:10273C0000221A77BB6803F00103002B0CD0FB6856
:10274C0003F00103002B07D07B681B686FF00102BC
:10275C001A617868FEF768FFBB6803F08003002BF2
:10276C000CD0FB6803F08003002B07D07B681B6840
:10277C006FF080021A61786800F06FFABB6803F0A2
:10278C004003002B0CD0FB6803F04003002B07D058
:10279C007B681B686FF040021A61786800F0F8F8EB
:1027AC00BB6803F02003002B0CD0FB6803F0200364
:1027BC00002B07D07B681B686FF020021A617868C9
:1027CC0000F042FA00BF1037BD4680BD80B584B022
:1027DC0000AF786039600023FB737B6893F83C3062
:1027EC00012B01D10223B4E07B68012283F83C2049
:1027FC007B68022283F83D207B681B689B68BB606A
:10280C00BB6823F07703BB60BB6823F47F43BB60DA
:10281C007B681B68BA689A603B681B68B3F5005FFD
:10282C003ED0B3F5005F00F28780B3F5805F00F017
:10283C008680B3F5805F7FD8702B1AD0702B7BD835
:10284C00602B50D0602B77D8502B3CD0502B73D8AA
:10285C00402B58D0402B6FD8302B64D0302B6BD8FA
:10286C00202B60D0202B67D8002B5CD0102B5AD09B
:10287C0062E07B6818683B6899683B685A683B68FB
:10288C00DB6800F06AF97B681B689B68BB60BB68FF
:10289C0043F07703BB607B681B68BA689A604FE0B3
:1028AC007B6818683B6899683B685A683B68DB68CA
:1028BC0000F053F97B681B689A687B681B6842F4CC
:1028CC0080429A603CE07B6818683B6859683B68BA
:1028DC00DB681A4600F0CAF87B681B685021184662
:1028EC0000F021F92CE07B6818683B6859683B685C
:1028FC00DB681A4600F0E8F87B681B686021184614
:10290C0000F011F91CE07B6818683B6859683B685B
:10291C00DB681A4600F0AAF87B681B684021184651
:10292C0000F001F90CE07B681A683B681B681946DB
:10293C00104600F0F8F803E00123FB7300E000BF41
:10294C007B68012283F83D207B68002283F83C20C1
:10295C00FB7B18461037BD4680BD80B483B000AFFA
:10296C00786000BF0C37BD4680BC704780B483B024
:10297C0000AF786000BF0C37BD4680BC704780B498
:10298C0083B000AF786000BF0C37BD4680BC704789
:10299C0080B483B000AF786000BF0C37BD4680BCFC
:1029AC007047000080B485B000AF786039607B68F8
:1029BC001B68FB607B682B4A934207D07B68B3F1A2
:1029CC00804F03D07B68284A934208D1FB6823F0E0
:1029DC007003FB603B685B68FA681343FB607B68C1
:1029EC00204A934207D07B68B3F1804F03D07B68B9
:1029FC001D4A934208D1FB6823F44073FB603B688B
:102A0C00DB68FA681343FB60FB6823F080023B68C9
:102A1C005B691343FB607B68FA681A603B689A68D1
:102A2C007B68DA623B681A687B689A627B680D4A3D
:102A3C00934203D13B681A697B681A637B68012255
:102A4C005A617B681B6903F00103002B05D07B687E
:102A5C001B6923F001027B681A6100BF1437BD4665
:102A6C0080BC7047002C01400004004080B487B04B
:102A7C0000AFF860B9607A60FB681B6A7B61FB6829
:102A8C001B6A23F00102FB681A62FB689B693B61BD
:102A9C003B6923F0F0033B617B681B013A691343EC
:102AAC003B617B6923F00A037B617A69BB68134342
:102ABC007B61FB683A699A61FB687A691A6200BFAC
:102ACC001C37BD4680BC704780B487B000AFF8603F
:102ADC00B9607A60FB681B6A7B61FB681B6A23F038
:102AEC001002FB681A62FB689B693B613B6923F42B
:102AFC0070433B617B681B033A6913433B617B6901
:102B0C0023F0A0037B61BB681B017A6913437B61D3
:102B1C00FB683A699A61FB687A691A6200BF1C37D4
:102B2C00BD4680BC704780B485B000AF786039601A
:102B3C007B689B68FB60FB6823F07003FB603A6862
:102B4C00FB68134343F00703FB607B68FA689A60E9
:102B5C0000BF1437BD4680BC704780B487B000AF4F
:102B6C00F860B9607A603B60FB689B687B617B694D
:102B7C0023F47F437B613B681A027B681A43BB6872
:102B8C0013437A6913437B61FB687A699A6000BFCF
:102B9C001C37BD4680BC704780B485B000AF7860F0
:102BAC0039607B6893F83C30012B01D1022341E062
:102BBC007B68012283F83C207B68022283F83D204D
:102BCC007B681B685B68FB607B681B689B68BB60F1
:102BDC00FB6823F07003FB603B681B68FA681343C7
:102BEC00FB607B681B68FA685A607B681B68144A38
:102BFC00934209D07B681B68B3F1804F04D07B688B
:102C0C001B68104A93420CD1BB6823F08003BB6055
:102C1C003B685B68BA681343BB607B681B68BA6827
:102C2C009A607B68012283F83D207B68002283F840
:102C3C003C20002318461437BD4680BC704700BFAB
:102C4C00002C01400004004080B483B000AF7860D9
:102C5C0000BF0C37BD4680BC704780B483B000AF5A
:102C6C00786000BF0C37BD4680BC704770B500263D
:102C7C000C4D0D4C641BA410A64209D100F022F897
:102C8C0000260A4D0A4C641BA410A64205D170BD47
:102C9C0055F8043B98470136EEE755F8043B984746
:102CAC000136F2E70C2D00080C2D00080C2D000845
:102CBC00102D000803460244934200D1704703F8DC
:102CCC00011BF9E7F8B500BFF8BC08BC9E4670477D
:0C2CDC00F8B500BFF8BC08BC9E4670476D
:102CE80000000000000000000102030406070809B4
:102CF80002030405060708090A0B0C0D0E0F101035
:042D080001020000C4
:042D0C003101000889
:042D10000D010008A9
:102D14000100000001000200040000001E00000089
:102D2400190000000200000000127A0010000000E8
:042D3400010000009A
:040000050800165980
:00000001FF
